{
  "contractName": "Registry",
  "abi": [
    {
      "inputs": [],
      "stateMutability": "nonpayable",
      "type": "constructor"
    },
    {
      "inputs": [
        {
          "internalType": "address",
          "name": "",
          "type": "address"
        },
        {
          "internalType": "uint256",
          "name": "",
          "type": "uint256"
        }
      ],
      "name": "adminMapsProperty",
      "outputs": [
        {
          "internalType": "uint256",
          "name": "surveyNo",
          "type": "uint256"
        },
        {
          "internalType": "string",
          "name": "state",
          "type": "string"
        },
        {
          "internalType": "string",
          "name": "district",
          "type": "string"
        },
        {
          "internalType": "string",
          "name": "city",
          "type": "string"
        },
        {
          "internalType": "address",
          "name": "AllocatedTo",
          "type": "address"
        }
      ],
      "stateMutability": "view",
      "type": "function",
      "constant": true
    },
    {
      "inputs": [
        {
          "internalType": "address",
          "name": "",
          "type": "address"
        }
      ],
      "name": "admins",
      "outputs": [
        {
          "internalType": "address",
          "name": "adminAddress",
          "type": "address"
        },
        {
          "internalType": "string",
          "name": "city",
          "type": "string"
        },
        {
          "internalType": "string",
          "name": "district",
          "type": "string"
        },
        {
          "internalType": "string",
          "name": "state",
          "type": "string"
        }
      ],
      "stateMutability": "view",
      "type": "function",
      "constant": true
    },
    {
      "inputs": [
        {
          "internalType": "address",
          "name": "",
          "type": "address"
        },
        {
          "internalType": "uint256",
          "name": "",
          "type": "uint256"
        }
      ],
      "name": "ownerMapsProperty",
      "outputs": [
        {
          "internalType": "uint256",
          "name": "tenderid1",
          "type": "uint256"
        },
        {
          "internalType": "string",
          "name": "state",
          "type": "string"
        },
        {
          "internalType": "string",
          "name": "district",
          "type": "string"
        },
        {
          "internalType": "string",
          "name": "city",
          "type": "string"
        }
      ],
      "stateMutability": "view",
      "type": "function",
      "constant": true
    },
    {
      "inputs": [
        {
          "internalType": "address",
          "name": "",
          "type": "address"
        },
        {
          "internalType": "uint256",
          "name": "",
          "type": "uint256"
        }
      ],
      "name": "requestedTenders",
      "outputs": [
        {
          "internalType": "uint256",
          "name": "tenderid1",
          "type": "uint256"
        },
        {
          "internalType": "string",
          "name": "state",
          "type": "string"
        },
        {
          "internalType": "string",
          "name": "district",
          "type": "string"
        },
        {
          "internalType": "string",
          "name": "city",
          "type": "string"
        }
      ],
      "stateMutability": "view",
      "type": "function",
      "constant": true
    },
    {
      "inputs": [],
      "name": "superAdmin",
      "outputs": [
        {
          "internalType": "address",
          "name": "",
          "type": "address"
        }
      ],
      "stateMutability": "view",
      "type": "function",
      "constant": true
    },
    {
      "inputs": [
        {
          "internalType": "string",
          "name": "",
          "type": "string"
        },
        {
          "internalType": "string",
          "name": "",
          "type": "string"
        },
        {
          "internalType": "string",
          "name": "",
          "type": "string"
        },
        {
          "internalType": "uint256",
          "name": "",
          "type": "uint256"
        }
      ],
      "name": "tenderDetailsMap",
      "outputs": [
        {
          "internalType": "address",
          "name": "owner",
          "type": "address"
        },
        {
          "internalType": "string",
          "name": "tendertype",
          "type": "string"
        },
        {
          "internalType": "string",
          "name": "tenderName",
          "type": "string"
        },
        {
          "internalType": "address",
          "name": "admin",
          "type": "address"
        },
        {
          "internalType": "string",
          "name": "ipfsuri",
          "type": "string"
        },
        {
          "internalType": "uint256",
          "name": "tenderId",
          "type": "uint256"
        },
        {
          "internalType": "uint256",
          "name": "tenderid1",
          "type": "uint256"
        },
        {
          "internalType": "uint256",
          "name": "index",
          "type": "uint256"
        },
        {
          "internalType": "bool",
          "name": "registered",
          "type": "bool"
        },
        {
          "internalType": "uint256",
          "name": "marketValue",
          "type": "uint256"
        },
        {
          "internalType": "bool",
          "name": "markAvailable",
          "type": "bool"
        },
        {
          "internalType": "uint256",
          "name": "noOfRequests",
          "type": "uint256"
        }
      ],
      "stateMutability": "view",
      "type": "function",
      "constant": true
    },
    {
      "inputs": [],
      "name": "totalAdmins",
      "outputs": [
        {
          "internalType": "uint256",
          "name": "",
          "type": "uint256"
        }
      ],
      "stateMutability": "view",
      "type": "function",
      "constant": true
    },
    {
      "inputs": [],
      "name": "totalTendors",
      "outputs": [
        {
          "internalType": "uint256",
          "name": "",
          "type": "uint256"
        }
      ],
      "stateMutability": "view",
      "type": "function",
      "constant": true
    },
    {
      "inputs": [],
      "name": "totalVendors",
      "outputs": [
        {
          "internalType": "uint256",
          "name": "",
          "type": "uint256"
        }
      ],
      "stateMutability": "view",
      "type": "function",
      "constant": true
    },
    {
      "inputs": [
        {
          "internalType": "address",
          "name": "",
          "type": "address"
        }
      ],
      "name": "userProfile",
      "outputs": [
        {
          "internalType": "address",
          "name": "userAddr",
          "type": "address"
        },
        {
          "internalType": "string",
          "name": "fullName",
          "type": "string"
        },
        {
          "internalType": "string",
          "name": "gender",
          "type": "string"
        },
        {
          "internalType": "string",
          "name": "email",
          "type": "string"
        },
        {
          "internalType": "string",
          "name": "contact",
          "type": "string"
        },
        {
          "internalType": "string",
          "name": "residentialAddr",
          "type": "string"
        },
        {
          "internalType": "uint256",
          "name": "totalIndices",
          "type": "uint256"
        },
        {
          "internalType": "uint256",
          "name": "requestIndices",
          "type": "uint256"
        }
      ],
      "stateMutability": "view",
      "type": "function",
      "constant": true
    },
    {
      "inputs": [
        {
          "internalType": "address",
          "name": "",
          "type": "address"
        }
      ],
      "name": "vendors",
      "outputs": [
        {
          "internalType": "address",
          "name": "vendorAddress",
          "type": "address"
        },
        {
          "internalType": "string",
          "name": "city",
          "type": "string"
        },
        {
          "internalType": "string",
          "name": "district",
          "type": "string"
        },
        {
          "internalType": "string",
          "name": "state",
          "type": "string"
        },
        {
          "internalType": "string",
          "name": "year",
          "type": "string"
        },
        {
          "internalType": "string",
          "name": "vendortype",
          "type": "string"
        },
        {
          "internalType": "uint256",
          "name": "rating",
          "type": "uint256"
        },
        {
          "internalType": "uint256",
          "name": "noofRaters",
          "type": "uint256"
        }
      ],
      "stateMutability": "view",
      "type": "function",
      "constant": true
    },
    {
      "inputs": [
        {
          "internalType": "address",
          "name": "_adminAddr",
          "type": "address"
        },
        {
          "internalType": "string",
          "name": "_state",
          "type": "string"
        },
        {
          "internalType": "string",
          "name": "_district",
          "type": "string"
        },
        {
          "internalType": "string",
          "name": "_city",
          "type": "string"
        },
        {
          "internalType": "string",
          "name": "_fullName",
          "type": "string"
        },
        {
          "internalType": "string",
          "name": "_gender",
          "type": "string"
        },
        {
          "internalType": "string",
          "name": "_email",
          "type": "string"
        },
        {
          "internalType": "string",
          "name": "_contact",
          "type": "string"
        },
        {
          "internalType": "string",
          "name": "_residentialAddr",
          "type": "string"
        }
      ],
      "name": "addAdmin",
      "outputs": [],
      "stateMutability": "nonpayable",
      "type": "function"
    },
    {
      "inputs": [
        {
          "internalType": "address",
          "name": "_vendorAddr",
          "type": "address"
        },
        {
          "internalType": "string",
          "name": "_state",
          "type": "string"
        },
        {
          "internalType": "string",
          "name": "_district",
          "type": "string"
        },
        {
          "internalType": "string",
          "name": "_city",
          "type": "string"
        },
        {
          "internalType": "string",
          "name": "_fullName",
          "type": "string"
        },
        {
          "internalType": "string",
          "name": "_gender",
          "type": "string"
        },
        {
          "internalType": "string",
          "name": "_email",
          "type": "string"
        },
        {
          "internalType": "string",
          "name": "_contact",
          "type": "string"
        },
        {
          "internalType": "string",
          "name": "_residentialAddr",
          "type": "string"
        },
        {
          "internalType": "string",
          "name": "_year",
          "type": "string"
        },
        {
          "internalType": "string",
          "name": "_vendortype",
          "type": "string"
        }
      ],
      "name": "addVendor",
      "outputs": [],
      "stateMutability": "nonpayable",
      "type": "function"
    },
    {
      "inputs": [
        {
          "internalType": "address",
          "name": "_vendortorating",
          "type": "address"
        },
        {
          "internalType": "uint256",
          "name": "_ratenumber",
          "type": "uint256"
        }
      ],
      "name": "GiveRating",
      "outputs": [],
      "stateMutability": "nonpayable",
      "type": "function"
    },
    {
      "inputs": [],
      "name": "isAdmin",
      "outputs": [
        {
          "internalType": "bool",
          "name": "",
          "type": "bool"
        }
      ],
      "stateMutability": "view",
      "type": "function",
      "constant": true
    },
    {
      "inputs": [],
      "name": "isVendor",
      "outputs": [
        {
          "internalType": "bool",
          "name": "",
          "type": "bool"
        }
      ],
      "stateMutability": "view",
      "type": "function",
      "constant": true
    },
    {
      "inputs": [
        {
          "internalType": "string",
          "name": "_state",
          "type": "string"
        },
        {
          "internalType": "string",
          "name": "_district",
          "type": "string"
        },
        {
          "internalType": "string",
          "name": "_city",
          "type": "string"
        },
        {
          "internalType": "uint256",
          "name": "_tenderId",
          "type": "uint256"
        },
        {
          "internalType": "uint256",
          "name": "_surveyNo",
          "type": "uint256"
        },
        {
          "internalType": "address",
          "name": "_owner",
          "type": "address"
        },
        {
          "internalType": "uint256",
          "name": "_marketValue",
          "type": "uint256"
        },
        {
          "internalType": "string",
          "name": "_tenderName",
          "type": "string"
        },
        {
          "internalType": "string",
          "name": "_tendertype",
          "type": "string"
        },
        {
          "internalType": "string",
          "name": "_ipfsuri",
          "type": "string"
        }
      ],
      "name": "registerTender",
      "outputs": [],
      "stateMutability": "nonpayable",
      "type": "function"
    },
    {
      "inputs": [
        {
          "internalType": "string",
          "name": "_fullName",
          "type": "string"
        },
        {
          "internalType": "string",
          "name": "_gender",
          "type": "string"
        },
        {
          "internalType": "string",
          "name": "_email",
          "type": "string"
        },
        {
          "internalType": "string",
          "name": "_contact",
          "type": "string"
        },
        {
          "internalType": "string",
          "name": "_residentialAddr",
          "type": "string"
        }
      ],
      "name": "setUserProfile",
      "outputs": [],
      "stateMutability": "nonpayable",
      "type": "function"
    },
    {
      "inputs": [
        {
          "internalType": "uint256",
          "name": "indexNo",
          "type": "uint256"
        }
      ],
      "name": "markMyPropertyAvailable",
      "outputs": [],
      "stateMutability": "nonpayable",
      "type": "function"
    },
    {
      "inputs": [
        {
          "internalType": "string",
          "name": "_state",
          "type": "string"
        },
        {
          "internalType": "string",
          "name": "_district",
          "type": "string"
        },
        {
          "internalType": "string",
          "name": "_city",
          "type": "string"
        },
        {
          "internalType": "uint256",
          "name": "_surveyNo",
          "type": "uint256"
        },
        {
          "internalType": "uint256",
          "name": "_BidAmount",
          "type": "uint256"
        },
        {
          "internalType": "string",
          "name": "_FileURI",
          "type": "string"
        }
      ],
      "name": "RequestForBuy",
      "outputs": [],
      "stateMutability": "nonpayable",
      "type": "function"
    },
    {
      "inputs": [
        {
          "internalType": "uint256",
          "name": "_index",
          "type": "uint256"
        },
        {
          "internalType": "uint256",
          "name": "_reqNo",
          "type": "uint256"
        }
      ],
      "name": "AcceptRequest",
      "outputs": [],
      "stateMutability": "nonpayable",
      "type": "function"
    },
    {
      "inputs": [
        {
          "internalType": "string",
          "name": "_state",
          "type": "string"
        },
        {
          "internalType": "string",
          "name": "_district",
          "type": "string"
        },
        {
          "internalType": "string",
          "name": "_city",
          "type": "string"
        },
        {
          "internalType": "uint256",
          "name": "_surveyNo",
          "type": "uint256"
        }
      ],
      "name": "getTenderDetails",
      "outputs": [
        {
          "internalType": "address",
          "name": "",
          "type": "address"
        },
        {
          "internalType": "uint256",
          "name": "",
          "type": "uint256"
        },
        {
          "internalType": "uint256",
          "name": "",
          "type": "uint256"
        },
        {
          "internalType": "uint256",
          "name": "",
          "type": "uint256"
        },
        {
          "internalType": "string",
          "name": "",
          "type": "string"
        },
        {
          "internalType": "string",
          "name": "",
          "type": "string"
        },
        {
          "internalType": "string",
          "name": "",
          "type": "string"
        }
      ],
      "stateMutability": "view",
      "type": "function",
      "constant": true
    },
    {
      "inputs": [
        {
          "internalType": "string",
          "name": "_state",
          "type": "string"
        },
        {
          "internalType": "string",
          "name": "_district",
          "type": "string"
        },
        {
          "internalType": "string",
          "name": "_city",
          "type": "string"
        },
        {
          "internalType": "uint256",
          "name": "_surveyNo",
          "type": "uint256"
        }
      ],
      "name": "getRequestCnt_propId",
      "outputs": [
        {
          "internalType": "uint256",
          "name": "",
          "type": "uint256"
        },
        {
          "internalType": "uint256",
          "name": "",
          "type": "uint256"
        }
      ],
      "stateMutability": "view",
      "type": "function",
      "constant": true
    },
    {
      "inputs": [
        {
          "internalType": "string",
          "name": "_state",
          "type": "string"
        },
        {
          "internalType": "string",
          "name": "_district",
          "type": "string"
        },
        {
          "internalType": "string",
          "name": "_city",
          "type": "string"
        },
        {
          "internalType": "uint256",
          "name": "_surveyNo",
          "type": "uint256"
        },
        {
          "internalType": "uint256",
          "name": "_reqIndex",
          "type": "uint256"
        }
      ],
      "name": "getRequesterDetail",
      "outputs": [
        {
          "internalType": "address",
          "name": "",
          "type": "address"
        }
      ],
      "stateMutability": "view",
      "type": "function",
      "constant": true
    },
    {
      "inputs": [
        {
          "internalType": "string",
          "name": "_state",
          "type": "string"
        },
        {
          "internalType": "string",
          "name": "_district",
          "type": "string"
        },
        {
          "internalType": "string",
          "name": "_city",
          "type": "string"
        },
        {
          "internalType": "uint256",
          "name": "_surveyNo",
          "type": "uint256"
        },
        {
          "internalType": "uint256",
          "name": "_reqIndex",
          "type": "uint256"
        }
      ],
      "name": "getRequesterBidAmount",
      "outputs": [
        {
          "internalType": "uint256",
          "name": "",
          "type": "uint256"
        }
      ],
      "stateMutability": "view",
      "type": "function",
      "constant": true
    },
    {
      "inputs": [
        {
          "internalType": "string",
          "name": "_state",
          "type": "string"
        },
        {
          "internalType": "string",
          "name": "_district",
          "type": "string"
        },
        {
          "internalType": "string",
          "name": "_city",
          "type": "string"
        },
        {
          "internalType": "uint256",
          "name": "_surveyNo",
          "type": "uint256"
        },
        {
          "internalType": "uint256",
          "name": "_reqIndex",
          "type": "uint256"
        }
      ],
      "name": "getRequesterFileURI",
      "outputs": [
        {
          "internalType": "string",
          "name": "",
          "type": "string"
        }
      ],
      "stateMutability": "view",
      "type": "function",
      "constant": true
    },
    {
      "inputs": [
        {
          "internalType": "string",
          "name": "_state",
          "type": "string"
        },
        {
          "internalType": "string",
          "name": "_district",
          "type": "string"
        },
        {
          "internalType": "string",
          "name": "_city",
          "type": "string"
        },
        {
          "internalType": "uint256",
          "name": "_surveyNo",
          "type": "uint256"
        },
        {
          "internalType": "uint256",
          "name": "_reqIndex",
          "type": "uint256"
        }
      ],
      "name": "getRequesterName",
      "outputs": [
        {
          "internalType": "string",
          "name": "",
          "type": "string"
        }
      ],
      "stateMutability": "view",
      "type": "function",
      "constant": true
    },
    {
      "inputs": [
        {
          "internalType": "string",
          "name": "_state",
          "type": "string"
        },
        {
          "internalType": "string",
          "name": "_district",
          "type": "string"
        },
        {
          "internalType": "string",
          "name": "_city",
          "type": "string"
        },
        {
          "internalType": "uint256",
          "name": "_surveyNo",
          "type": "uint256"
        }
      ],
      "name": "isAvailable",
      "outputs": [
        {
          "internalType": "bool",
          "name": "",
          "type": "bool"
        }
      ],
      "stateMutability": "view",
      "type": "function",
      "constant": true
    },
    {
      "inputs": [
        {
          "internalType": "uint256",
          "name": "indx",
          "type": "uint256"
        }
      ],
      "name": "getOwnerOwns",
      "outputs": [
        {
          "internalType": "string",
          "name": "",
          "type": "string"
        },
        {
          "internalType": "string",
          "name": "",
          "type": "string"
        },
        {
          "internalType": "string",
          "name": "",
          "type": "string"
        },
        {
          "internalType": "uint256",
          "name": "",
          "type": "uint256"
        }
      ],
      "stateMutability": "view",
      "type": "function",
      "constant": true
    },
    {
      "inputs": [
        {
          "internalType": "uint256",
          "name": "indx",
          "type": "uint256"
        }
      ],
      "name": "getAdminOwns",
      "outputs": [
        {
          "internalType": "string",
          "name": "",
          "type": "string"
        },
        {
          "internalType": "string",
          "name": "",
          "type": "string"
        },
        {
          "internalType": "string",
          "name": "",
          "type": "string"
        },
        {
          "internalType": "uint256",
          "name": "",
          "type": "uint256"
        }
      ],
      "stateMutability": "view",
      "type": "function",
      "constant": true
    },
    {
      "inputs": [
        {
          "internalType": "uint256",
          "name": "indx",
          "type": "uint256"
        }
      ],
      "name": "getRequestedTenders",
      "outputs": [
        {
          "internalType": "string",
          "name": "",
          "type": "string"
        },
        {
          "internalType": "string",
          "name": "",
          "type": "string"
        },
        {
          "internalType": "string",
          "name": "",
          "type": "string"
        },
        {
          "internalType": "uint256",
          "name": "",
          "type": "uint256"
        }
      ],
      "stateMutability": "view",
      "type": "function",
      "constant": true
    },
    {
      "inputs": [],
      "name": "getUserProfile",
      "outputs": [
        {
          "internalType": "string",
          "name": "",
          "type": "string"
        },
        {
          "internalType": "string",
          "name": "",
          "type": "string"
        },
        {
          "internalType": "string",
          "name": "",
          "type": "string"
        },
        {
          "internalType": "string",
          "name": "",
          "type": "string"
        },
        {
          "internalType": "string",
          "name": "",
          "type": "string"
        }
      ],
      "stateMutability": "view",
      "type": "function",
      "constant": true
    },
    {
      "inputs": [
        {
          "internalType": "address",
          "name": "_addr",
          "type": "address"
        }
      ],
      "name": "getUserName",
      "outputs": [
        {
          "internalType": "string",
          "name": "",
          "type": "string"
        }
      ],
      "stateMutability": "view",
      "type": "function",
      "constant": true
    },
    {
      "inputs": [
        {
          "internalType": "address",
          "name": "_addr",
          "type": "address"
        }
      ],
      "name": "getestablishYear",
      "outputs": [
        {
          "internalType": "string",
          "name": "",
          "type": "string"
        }
      ],
      "stateMutability": "view",
      "type": "function",
      "constant": true
    },
    {
      "inputs": [],
      "name": "getIndices",
      "outputs": [
        {
          "internalType": "uint256",
          "name": "",
          "type": "uint256"
        },
        {
          "internalType": "uint256",
          "name": "",
          "type": "uint256"
        }
      ],
      "stateMutability": "view",
      "type": "function",
      "constant": true
    },
    {
      "inputs": [
        {
          "internalType": "string",
          "name": "_state",
          "type": "string"
        },
        {
          "internalType": "string",
          "name": "_district",
          "type": "string"
        },
        {
          "internalType": "string",
          "name": "_city",
          "type": "string"
        },
        {
          "internalType": "uint256",
          "name": "_surveyNo",
          "type": "uint256"
        }
      ],
      "name": "didIRequested",
      "outputs": [
        {
          "internalType": "bool",
          "name": "",
          "type": "bool"
        }
      ],
      "stateMutability": "view",
      "type": "function",
      "constant": true
    },
    {
      "inputs": [],
      "name": "getTotalTendors",
      "outputs": [
        {
          "internalType": "uint256",
          "name": "",
          "type": "uint256"
        }
      ],
      "stateMutability": "view",
      "type": "function",
      "constant": true
    }
  ],
  "bytecode": "0x6080806040523461002e576103e860035560008054600160a060020a03191633179055614b8090816100348239f35b600080fdfe6080604052600436101561001257600080fd5b7c0100000000000000000000000000000000000000000000000000000000600035048063108f4a8a1461438b5780631c8e896214614348578063253bc13c1461430b57806327e30c361461427e57806329575f6a146142575780633bbd43b314614211578063429b62e51461417957806344e0573414613ffd5780635863056d14613fc75780636b8ef23a14613eac5780636d1b9a8e14613e115780636f61c74414613d28578063735ad3dd14613c8d578063757612ef1461330b57806379ecc8cb146114be5780638a475e03146132bd5780638b5bcc3d1461320557806398faad55146131e7578063992369da146131a7578063a10da96614613167578063a3743d5c14612563578063aa9c0dcd14611fa6578063abb5cd0514611f4f578063b6db75a014611f34578063d06efd6714611ebe578063d1dbeff214611e4a578063d41cc5c814611556578063d44cafa5146114dc578063d67b6628146114be578063d84f55ee1461146d578063d975f5f014610e4a578063e7217f1614610e2f578063eaec23fa14610e09578063eb68048b14610deb578063edd41ad2146102d1578063f70e8d441461027f5763fc47f57d146101cf57600080fd5b3461027a5760208060031936011261027a5760043533600052600782526040600020816000528252610276604060002054336000526007845260406000208360005284526102236001604060002001614741565b92336000526007855260406000208160005285526102476002604060002001614741565b9433600052600781526040600020916000525261026a6003604060002001614741565b60405194859485614913565b0390f35b600080fd5b3461027a576102a26102a26102a861029636614860565b969291939590956148c7565b906148ed565b90600052602052600b604060002001906000526020526020600260406000200154604051908152f35b3461027a5761014036600319011261027a5760043567ffffffffffffffff811161027a576103039036906004016145eb565b60243567ffffffffffffffff811161027a576103239036906004016145eb565b9060443567ffffffffffffffff811161027a576103449036906004016145eb565b60a43591600160a060020a0393848416840361027a5760e43567ffffffffffffffff811161027a5761037a9036906004016145eb565b916101043567ffffffffffffffff811161027a5761039c9036906004016145eb565b6101243567ffffffffffffffff811161027a576103bd9036906004016145eb565b33600052600460205233886040600020541603610da4573360005260046020526103fb61040960036040600020016040519283916020830190614ac6565b03601f1981018352826145c9565b60208151910120604051602081019061043a602082885161042d8187858d016146a5565b81010380845201826145c9565b5190201480610d52575b80610d00575b15610c935761048061047a604051602081875161046a8183858c016146a5565b81016009815203019020866148ed565b876148ed565b600354908160005260205260ff60086040600020015416610c26576104cc6104c660405160208188516104b68183858d016146a5565b81016009815203019020876148ed565b886148ed565b906000526020526040600020913360005260066020526040600020600a602052600660406000200154600052602052604060002095600a602052600160a060020a03198a8a168186541617855560038501903390825416179055600354806005860155600685015589891660005260066040600020015460078501556008840160ff199060018282541617905560c43560098601556001600a86019182541617905580519067ffffffffffffffff821161089c5761058d6002860154614703565b601f8111610bf0575b50602090601f8311600114610b7d576105ca929160009183610b72575b5050816002029160080260020a6000190419161790565b60028401555b80519067ffffffffffffffff821161089c576105ef6001850154614703565b601f8111610b3c575b50602090601f8311600114610ac95761062b929160009183610a15575050816002029160080260020a6000190419161790565b60018301555b80519067ffffffffffffffff821161089c576106506004840154614703565b601f8111610a93575b50602090601f8311600114610a2057918061068f92600494600092610a15575050816002029160080260020a6000190419161790565b9101555b600354835580519067ffffffffffffffff821161089c576106b76001850154614703565b601f81116109df575b50602090601f831160011461096c576106f39291600091836108b5575050816002029160080260020a6000190419161790565b60018301555b80519067ffffffffffffffff821161089c576107186002840154614703565b601f8111610936575b50602090601f83116001146108c057918061075892600395946000926108b5575050816002029160080260020a6000190419161790565b60028201555b019080519067ffffffffffffffff821161089c5761077c8354614703565b601f811161085e575b50602090601f83116001146107f3576107b89291600091836107e8575050816002029160080260020a6000190419161790565b90555b16600052600a60205260066040600020016107d68154614983565b90556107e3600354614983565b600355005b0151905086806105b3565b90601f198316918460005260206000209260005b8181106108465750916002939185600196941061082b575b505050020190556107bb565b01516008601f841602840a600019041916905586808061081f565b92936020600181928786015181550195019301610807565b61088c908460005260206000206020601f86010481019160208610610892575b601f60209101040190614992565b85610785565b909150819061087e565b60e060020a634e487b7102600052604160045260246000fd5b0151905088806105b3565b906002840160005260206000209160005b601f198516811061091e5750926001926002926003969583601f19811610610903575b5050500201600282015561075e565b01516008601f841602840a60001904191690558880806108f4565b919260206001819286850151815501940192016108d1565b610966906002850160005260206000206020601f8601048101916020861061089257601f60209101040190614992565b86610721565b906001850160005260206000209160005b601f19851681106109c75750918391600293600195601f198116106109ac575b505050020160018301556106f9565b01516008601f841602840a600019041916905588808061099d565b9192602060018192868501518155019401920161097d565b610a0f906001860160005260206000206020601f8601048101916020861061089257601f60209101040190614992565b876106c0565b015190508b806105b3565b906004840160005260206000209160005b601f1985168110610a7b57509260019260029260049583601f19811610610a60575b5050500201910155610693565b01516008601f841602840a60001904191690558b8080610a53565b91926020600181928685015181550194019201610a31565b610ac3906004850160005260206000206020601f8601048101916020861061089257601f60209101040190614992565b89610659565b906001850160005260206000209160005b601f1985168110610b245750918391600293600195601f19811610610b09575b50505002016001830155610631565b01516008601f841602840a60001904191690558b8080610afa565b91926020600181928685015181550194019201610ada565b610b6c906001860160005260206000206020601f8601048101916020861061089257601f60209101040190614992565b8a6105f8565b015190508c806105b3565b906002860160005260206000209160005b601f1985168110610bd85750918391600293600195601f19811610610bbd575b505050020160028401556105d0565b01516008601f841602840a60001904191690558c8080610bae565b91926020600181928685015181550194019201610b8e565b610c20906002870160005260206000206020601f8601048101916020861061089257601f60209101040190614992565b8b610596565b608460405160e560020a62461bcd02815260206004820152602160248201527f537572766579204e756d62657220616c7265616479207265676973746572656460448201527f21000000000000000000000000000000000000000000000000000000000000006064820152fd5b608460405160e560020a62461bcd02815260206004820152602a60248201527f41646d696e2063616e206f6e6c79207265676973746572206c616e64206f662060448201527f73616d6520636974792e000000000000000000000000000000000000000000006064820152fd5b503360005260046020526001604060002001604051610d27816103fb602082018095614ac6565b5190206040516020810190610d496020828161042d8d878151938492016146a5565b5190201461044a565b503360005260046020526002604060002001604051610d79816103fb602082018095614ac6565b5190206040516020810190610d9b6020828161042d8b878151938492016146a5565b51902014610444565b606460405160e560020a62461bcd02815260206004820152601c60248201527f4f6e6c792061646d696e2063616e205265676973746572206c616e64000000006044820152fd5b3461027a57600036600319011261027a576020600154604051908152f35b3461027a576020610e25610e1c36614642565b92919091614a42565b6040519015158152f35b3461027a57600036600319011261027a576020610e25614a1c565b3461027a5760c036600319011261027a5760043567ffffffffffffffff811161027a57610e7b9036906004016145eb565b60243567ffffffffffffffff811161027a57610e9b9036906004016145eb565b9060443567ffffffffffffffff811161027a57610ebc9036906004016145eb565b9060a43567ffffffffffffffff811161027a57610edd9036906004016145eb565b610efe610ef8604051602081865161046a8183858b016146a5565b846148ed565b606435600052602052604060002090600160ff600a8401541615150361140057600c82015490600b83018260005280602052604060002033600160a060020a031982541617905533600052600a602052600760406000200154926000526020526040600020916001830155608435600283015580519067ffffffffffffffff821161089c57610f906003840154614703565b601f81116113ca575b50602090601f8311600114611357579180610fcf9260039460009261134c575050816002029160080260020a6000190419161790565b9101555b600c610fe181830154614983565b9101553360005260086020526040600020600a602052600760406000200154600052602052604060002090606435825580519067ffffffffffffffff821161089c576110306001840154614703565b601f8111611316575b50602090601f83116001146112a35761106c9291600091836107e8575050816002029160080260020a6000190419161790565b60018201555b60028101835167ffffffffffffffff811161089c576110918254614703565b601f8111611270575b506020601f82116001146112035790806110d092600396976000926111f8575050816002029160080260020a6000190419161790565b90555b019080519067ffffffffffffffff821161089c576110f18354614703565b601f81116111c5575b50602090601f831160011461115a5761112d92916000918361114f575050816002029160080260020a6000190419161790565b90555b33600052600a602052600760406000200161114b8154614983565b9055005b0151905084806105b3565b90601f198316918460005260206000209260005b8181106111ad57509160029391856001969410611192575b50505002019055611130565b01516008601f841602840a6000190419169055848080611186565b9293602060018192878601518155019501930161116e565b6111f2908460005260206000206020601f8601048101916020861061089257601f60209101040190614992565b836110fa565b0151905087806105b3565b601f198216958360005260206000209660005b81811061125857509660029284926001956003999a1061123d575b505050020190556110d3565b01516008601f841602840a6000190419169055878080611231565b83830151895560019098019760209384019301611216565b61129d908360005260206000206020601f8501048101916020851061089257601f60209101040190614992565b8561109a565b906001840160005260206000209160005b601f19851681106112fe5750918391600293600195601f198116106112e3575b50505002016001820155611072565b01516008601f841602840a60001904191690558680806112d4565b919260206001819286850151815501940192016112b4565b611346906001850160005260206000206020601f8601048101916020861061089257601f60209101040190614992565b85611039565b0151905089806105b3565b906003840160005260206000209160005b601f19851681106113b257509260019260029260039583601f19811610611397575b5050500201910155610fd3565b01516008601f841602840a600019041916905589808061138a565b91926020600181928685015181550194019201611368565b6113fa906003850160005260206000206020601f8601048101916020861061089257601f60209101040190614992565b87610f99565b608460405160e560020a62461bcd02815260206004820152602560248201527f546869732070726f7065727479206973204e4f54206d61726b656420666f722060448201527f73616c65210000000000000000000000000000000000000000000000000000006064820152fd5b3461027a57602036600319011261027a57600160a060020a0361148e6146ed565b16600052600a6020526102766114aa6001604060002001614741565b6040519182916020835260208301906146c8565b3461027a57600036600319011261027a576020600354604051908152f35b3461027a57604036600319011261027a57600160a060020a036114fd6146ed565b16806000526005602052600660406000200154602435810180911161153d57600791600052600560205260406000209060068201550161114b8154614983565b60e060020a634e487b7102600052601160045260246000fd5b3461027a57604036600319011261027a57336000908152600660209081526040808320600435808552925290912080549061159390600101614741565b913360005260066020526040600020816000526020526115b96002604060002001614741565b903360005260066020526040600020906000526020526115df6003604060002001614741565b9161160d610ef860405160208188516115fb8183858d016146a5565b600981830152810103019020846148ed565b81600052602052600b604060002001602435600052602052600160a060020a036040600020541692611668611662604051602081816116528b838151938492016146a5565b81016009815203019020856148ed565b826148ed565b82600052602052600b60406000200160243560005260205261169d611662604051602081816116528b838151938492016146a5565b82600052602052600c604060002001546116d06116ca6040516020818161046a8c838151938492016146a5565b836148ed565b83600052602052600b6040600020016024356000526020526116f86003604060002001614741565b611715610ef8604051602081816104b68d838151938492016146a5565b84600052602052600b6040600020016024356000526020526002604060002001549160005b818110611d09575050611760610ef8604051602081816104b68d838151938492016146a5565b84600052602052604060002086600160a060020a0319825416179055611799610ef8604051602081816104b68d838151938492016146a5565b8460005260205260046040600020019080519067ffffffffffffffff821161089c576117c58354614703565b601f8111611cd6575b50602090601f8311600114611c6957611801929160009183611c5e575050816002029160080260020a6000190419161790565b90555b6118216116ca6040516020818161046a8c838151938492016146a5565b8360005260205260096040600020015561184e611662604051602081816116528b838151938492016146a5565b82600052602052600a60406000200160ff198154169055611882611662604051602081816116528b838151938492016146a5565b826000526020526000600c60408220015583600052600a602052600660406000200154926006602052604060002084600052602052604060002095838755805167ffffffffffffffff811161089c576118de6001890154614703565b601f8111611c28575b506020601f8211600114611bb857908061191992600091611bad575b50816002029160080260020a6000190419161790565b60018801555b815167ffffffffffffffff811161089c5761193d6002890154614703565b601f8111611b77575b506020601f8211600114611b0757908061197792600091611afc5750816002029160080260020a6000190419161790565b60028801555b82519667ffffffffffffffff881161089c5761199c6003820154614703565b601f8111611ac6575b50602097601f8111600114611a46576102a29392611a019260036119ea84602095611a119b9c9d9e600091611a3b5750816002029160080260020a6000190419161790565b9101555b81604051938285809451938492016146a5565b81016009815203019020906148ed565b90600052602052600760406000200155600052600a602052600660406000200161114b8154614983565b90508a01518f611903565b60038201600052602060002060005b601f1983168110611aae575092611a0192600360016002856102a29998611a119c9d9e9f602098601f19811610611a93575b505002019101556119ee565b8c01516008601f841602840a60001904191690558f80611a87565b868b0151825560209a8b019a60019092019101611a55565b611af6906003830160005260206000206020601f8c010481019160208c1061089257601f60209101040190614992565b886119a5565b90508401518a611903565b6002890160005260206000209060005b601f1984168110611b5f57509160029160019382601f19811610611b44575b50500201600288015561197d565b8601516008601f841602840a60001904191690558a80611b36565b90916020600181928589015181550193019101611b17565b611ba79060028a0160005260206000206020601f8501048101916020851061089257601f60209101040190614992565b88611946565b90508301518a611903565b6001890160005260206000209060005b601f1984168110611c1057509160029160019382601f19811610611bf5575b50500201600188015561191f565b8501516008601f841602840a60001904191690558a80611be7565b90916020600181928588015181550193019101611bc8565b611c589060018a0160005260206000206020601f8501048101916020851061089257601f60209101040190614992565b886118e7565b015190508a806105b3565b908360005260206000209160005b601f1985168110611cbe5750918391600293600195601f19811610611ca3575b50505002019055611804565b01516008601f841602840a60001904191690558a8080611c97565b91926020600181928685015181550194019201611c77565b611d03908460005260206000206020601f8601048101916020861061089257601f60209101040190614992565b896117ce565b600190611d3b61047a611d2b60208d81604051938285809451938492016146a5565b810160098152030190208a6148ed565b87600052602052600b6040600020018160005260205289611d906104c6611d806020600160a060020a03604060002054169481604051938285809451938492016146a5565b810160098152030190208b6148ed565b88600052602052600b604060002001826000526020528260406000200154906000526008602052604060002090600052602052611dee6003604060002060008155611ddc8582016149d4565b611de8600282016149d4565b016149d4565b611e0d61047a611d2b60208d81604051938285809451938492016146a5565b87600052602052600b60406000200181600052602052611e44600360406000206000815560008582015560006002820155016149d4565b0161173a565b3461027a57604036600319011261027a57600160a060020a03611e6b6146ed565b166000526006602052604060002060243560005260205260406000208054610276611e9860018401614741565b92611eb16003611eaa60028401614741565b9201614741565b9060405194859485614944565b3461027a576040611f1b611ed136614642565b919293906102a2865194611a01878051611efc61047a8a6020809c818097019561046a8183896146a5565b886000528252600c8b6000200154998b519384928392519283916146a5565b9060005281526005836000200154908351928352820152f35b3461027a57600036600319011261027a576020610e256149a9565b3461027a576102a26102a2611f6661029636614860565b90600052602052600b60406000200190600052602052600160a060020a0360406000205416600052600a6020526102766114aa6001604060002001614741565b3461027a5760a036600319011261027a5767ffffffffffffffff60043581811161027a57611fd89036906004016145eb565b602491823581811161027a57611ff29036906004016145eb565b9160443582811161027a5761200b9036906004016145eb565b60643583811161027a576120239036906004016145eb565b9360843584811161027a5761203c9036906004016145eb565b9433600052602090600a82526040600020906001948583018751898111612402576120678254614703565b98601f998a8111612537575b5086908a83116001146124d0576120a492916000918361241a575050816002029160080260020a6000190419161790565b90555b600294858401908051908a82116124b8576120c28354614703565b8a811161248c575b5086908a8311600114612425576120fb92916000918361241a575050816002029160080260020a6000190419161790565b90555b80516003840191898211612402576121168354614703565b8981116123d6575b50859089831160011461236f5761214f9291600091836122b4575050816002029160080260020a6000190419161790565b90555b805160048301918882116123575761216a8354614703565b88811161232b575b5084908883116001146122bf5791806121a89260059695946000926122b4575050816002029160080260020a6000190419161790565b90555b0196865195861161229d57506121c18754614703565b848111612267575b5080938086116001146121fe5750505050819061114b9360009261114f575050816002029160080260020a6000190419161790565b91949390929584601f1981168960005285600020956000905b8a83831061224d5750505010612232575b5050505002019055005b0151908316600802840a600019041916905584808080612228565b858701518955909701969485019488935090810190612217565b61228e908860005282600020838781818b0104830193828b10612294575b01040190614992565b876121c9565b93508293612285565b60e060020a634e487b710260005260416004526000fd5b015190508d806105b3565b87919493928791601f1982169685600052886000209160005b8a8a821061231257505083600599106122f8575b505050020190556121ab565b01516008838d1602840a60001904191690558d80806122ec565b8383015185558d978d97509094019392830192016122d8565b612351908460005286600020878b81818801048301938288106122945701040190614992565b8b612172565b8a60e060020a634e487b710260005260416004526000fd5b9188928892601f1983169186600052896000209260005b8b8282106123bd57505084116123a3575b50505002019055612152565b01516008838d1602840a60001904191690558d8080612397565b8484015186558e988e9850909501949384019301612386565b6123fc908460005287600020888c81818801048301938288106122945701040190614992565b8c61211e565b8b60e060020a634e487b710260005260416004526000fd5b015190508e806105b3565b9189928992601f19831691866000528a6000209260005b8c8282106124735750508411612459575b505050020190556120fe565b01516008838e1602840a60001904191690558e808061244d565b8484015186558f988f985090950194938401930161243c565b6124b2908460005288600020898d81818801048301938288106122945701040190614992565b8d6120ca565b8c60e060020a634e487b710260005260416004526000fd5b918991601f1982169085600052896000209160005b8b82821061252157505094836002959610612507575b505050020190556120a7565b01516008838e1602840a60001904191690558e80806124fb565b8388015185558e969094019392830192016124e5565b61255d908460005288600020898d81818801048301938288106122945701040190614992565b8d612073565b3461027a5761016036600319011261027a5761257d6146ed565b60243567ffffffffffffffff811161027a5761259d9036906004016145eb565b9060443567ffffffffffffffff811161027a576125be9036906004016145eb565b9060643567ffffffffffffffff811161027a576125df9036906004016145eb565b60843567ffffffffffffffff811161027a576125ff9036906004016145eb565b9160a43567ffffffffffffffff811161027a576126209036906004016145eb565b9060c43567ffffffffffffffff811161027a576126419036906004016145eb565b9260e43567ffffffffffffffff811161027a576126629036906004016145eb565b966101043567ffffffffffffffff811161027a576126849036906004016145eb565b966101243567ffffffffffffffff811161027a576126a69036906004016145eb565b916101443567ffffffffffffffff811161027a576126c89036906004016145eb565b91600160a060020a03861660005260056020526040600020946126ec600254614983565b600255855473ffffffffffffffffffffffffffffffffffffffff1916600160a060020a03881617865580519067ffffffffffffffff821161089c576127346001880154614703565b601f8111613131575b50602090601f83116001146130be5761277092916000918361241a575050816002029160080260020a6000190419161790565b60018601555b80519067ffffffffffffffff821161089c576127956002870154614703565b601f8111613088575b50602090601f8311600114613015576127d19291600091836122b4575050816002029160080260020a6000190419161790565b60028501555b80519067ffffffffffffffff821161089c576127f66003860154614703565b601f8111612fdf575b50602090601f8311600114612f6c57612832929160009183610b72575050816002029160080260020a6000190419161790565b60038401555b600560068401556001600784015580519067ffffffffffffffff821161089c576128656005850154614703565b601f8111612f36575b50602090601f8311600114612ec3576128a1929160009183610a15575050816002029160080260020a6000190419161790565b60058301555b80519067ffffffffffffffff821161089c576128c66004840154614703565b601f8111612e8d575b50602090601f8311600114612e105782600160a060020a0395949360049361290f93600092610b72575050816002029160080260020a6000190419161790565b9101555b16600052600a602052604060002092600184019080519067ffffffffffffffff821161089c576129438354614703565b601f8111612ddd575b50602090601f8311600114612d725761297f92916000918361134c575050816002029160080260020a6000190419161790565b90555b8051600284019167ffffffffffffffff821161089c576129a28354614703565b601f8111612d3f575b50602090601f8311600114612cd4576129de9291600091836108b5575050816002029160080260020a6000190419161790565b90555b8051600383019167ffffffffffffffff821161089c57612a018354614703565b601f8111612ca1575b50602090601f8311600114612c3657612a3d9291600091836111f8575050816002029160080260020a6000190419161790565b90555b60048101835167ffffffffffffffff811161089c57612a5f8254614703565b601f8111612c03575b506020601f8211600114612b96579080612a9e92600596976000926111f8575050816002029160080260020a6000190419161790565b90555b019080519067ffffffffffffffff821161089c57612abf8354614703565b601f8111612b63575b50602090601f8311600114612afb5761114b92916000918361114f575050816002029160080260020a6000190419161790565b90601f198316918460005260206000209260005b818110612b4b57509160029391856001969410612b30575b50505002019055005b01516008601f841602840a6000190419169055848080612b27565b92936020600181928786015181550195019301612b0f565b612b90908460005260206000206020601f8601048101916020861061089257601f60209101040190614992565b83612ac8565b601f198216958360005260206000209660005b818110612beb57509660029284926001956005999a10612bd0575b50505002019055612aa1565b01516008601f841602840a6000190419169055878080612bc4565b83830151895560019098019760209384019301612ba9565b612c30908360005260206000206020601f8501048101916020851061089257601f60209101040190614992565b85612a68565b90601f198316918460005260206000209260005b818110612c8957509160029391856001969410612c6e575b50505002019055612a40565b01516008601f841602840a6000190419169055878080612c62565b92936020600181928786015181550195019301612c4a565b612cce908460005260206000206020601f8601048101916020861061089257601f60209101040190614992565b86612a0a565b90601f198316918460005260206000209260005b818110612d2757509160029391856001969410612d0c575b505050020190556129e1565b01516008601f841602840a6000190419169055888080612d00565b92936020600181928786015181550195019301612ce8565b612d6c908460005260206000206020601f8601048101916020861061089257601f60209101040190614992565b876129ab565b90601f198316918460005260206000209260005b818110612dc557509160029391856001969410612daa575b50505002019055612982565b01516008601f841602840a6000190419169055898080612d9e565b92936020600181928786015181550195019301612d86565b612e0a908460005260206000206020601f8601048101916020861061089257601f60209101040190614992565b8861294c565b906004840160005260206000209160005b601f1985168110612e75575083600493600193600293600160a060020a03999897601f19811610612e5a575b5050500201910155612913565b01516008601f841602840a60001904191690558c8080612e4d565b91926020600181928685015181550194019201612e21565b612ebd906004850160005260206000206020601f8601048101916020861061089257601f60209101040190614992565b896128cf565b906005850160005260206000209160005b601f1985168110612f1e5750918391600293600195601f19811610612f03575b505050020160058301556128a7565b01516008601f841602840a60001904191690558b8080612ef4565b91926020600181928685015181550194019201612ed4565b612f66906005860160005260206000206020601f8601048101916020861061089257601f60209101040190614992565b8a61286e565b906003860160005260206000209160005b601f1985168110612fc75750918391600293600195601f19811610612fac575b50505002016003840155612838565b01516008601f841602840a60001904191690558c8080612f9d565b91926020600181928685015181550194019201612f7d565b61300f906003870160005260206000206020601f8601048101916020861061089257601f60209101040190614992565b8b6127ff565b906002870160005260206000209160005b601f19851681106130705750918391600293600195601f19811610613055575b505050020160028501556127d7565b01516008601f841602840a60001904191690558d8080613046565b91926020600181928685015181550194019201613026565b6130b8906002880160005260206000206020601f8601048101916020861061089257601f60209101040190614992565b8c61279e565b906001880160005260206000209160005b601f19851681106131195750918391600293600195601f198116106130fe575b50505002016001860155612776565b01516008601f841602840a60001904191690558e80806130ef565b919260206001819286850151815501940192016130cf565b613161906001890160005260206000206020601f8601048101916020861061089257601f60209101040190614992565b8d61273d565b3461027a576102a26102a261317e61029636614860565b90600052602052600b604060002001906000526020526102766114aa6003604060002001614741565b3461027a576102a26131c86102a26131be36614642565b95929390936148c7565b90600052602052602060ff600a60406000200154166040519015158152f35b3461027a57600036600319011261027a576020600254604051908152f35b3461027a57604036600319011261027a5761321e6146ed565b600160a060020a03809116600052600760205260406000206024356000526020526040600020908154906132b361325760018501614741565b936132a561326760028301614741565b93600461327660038501614741565b9301541693613297604051978897885260a0602089015260a08801906146c8565b9086820360408801526146c8565b9084820360608601526146c8565b9060808301520390f35b3461027a57604036600319011261027a57600160a060020a036132de6146ed565b166000526008602052604060002060243560005260205260406000208054610276611e9860018401614741565b3461027a5761012036600319011261027a576133256146ed565b60243567ffffffffffffffff811161027a576133459036906004016145eb565b9060443567ffffffffffffffff811161027a576133669036906004016145eb565b9060643567ffffffffffffffff811161027a576133879036906004016145eb565b60843567ffffffffffffffff811161027a576133a79036906004016145eb565b9160a43567ffffffffffffffff811161027a576133c89036906004016145eb565b9060c43567ffffffffffffffff811161027a576133e99036906004016145eb565b9260e43567ffffffffffffffff811161027a5761340a9036906004016145eb565b966101043567ffffffffffffffff811161027a5761342c9036906004016145eb565b96600160a060020a0384166000526004602052604060002092613450600154614983565b600155835473ffffffffffffffffffffffffffffffffffffffff1916600160a060020a03861617845580519067ffffffffffffffff821161089c576134986001860154614703565b601f8111613c57575b50602090601f8311600114613be4576134d4929160009183610b72575050816002029160080260020a6000190419161790565b60018401555b80519067ffffffffffffffff821161089c576134f96002850154614703565b601f8111613bae575b50602090601f8311600114613b3b57613535929160009183610a15575050816002029160080260020a6000190419161790565b60028301555b80519067ffffffffffffffff821161089c5761355a6003840154614703565b601f8111613b05575b50602090601f8311600114613a885782600160a060020a039594936003936135a393600092610b72575050816002029160080260020a6000190419161790565b9101555b16600052600a602052604060002092600184019080519067ffffffffffffffff821161089c576135d78354614703565b601f8111613a55575b50602090601f83116001146139ea5761361392916000918361134c575050816002029160080260020a6000190419161790565b90555b8051600284019167ffffffffffffffff821161089c576136368354614703565b601f81116139b7575b50602090601f831160011461394c576136729291600091836108b5575050816002029160080260020a6000190419161790565b90555b8051600383019167ffffffffffffffff821161089c576136958354614703565b601f8111613919575b50602090601f83116001146138ae576136d19291600091836111f8575050816002029160080260020a6000190419161790565b90555b60048101835167ffffffffffffffff811161089c576136f38254614703565b601f811161387b575b506020601f821160011461380e57908061373292600596976000926111f8575050816002029160080260020a6000190419161790565b90555b019080519067ffffffffffffffff821161089c576137538354614703565b601f81116137db575b50602090601f831160011461378f5761114b92916000918361114f575050816002029160080260020a6000190419161790565b90601f198316918460005260206000209260005b8181106137c357509160029391856001969410612b305750505002019055005b929360206001819287860151815501950193016137a3565b613808908460005260206000206020601f8601048101916020861061089257601f60209101040190614992565b8361375c565b601f198216958360005260206000209660005b81811061386357509660029284926001956005999a10613848575b50505002019055613735565b01516008601f841602840a600019041916905587808061383c565b83830151895560019098019760209384019301613821565b6138a8908360005260206000206020601f8501048101916020851061089257601f60209101040190614992565b856136fc565b90601f198316918460005260206000209260005b818110613901575091600293918560019694106138e6575b505050020190556136d4565b01516008601f841602840a60001904191690558780806138da565b929360206001819287860151815501950193016138c2565b613946908460005260206000206020601f8601048101916020861061089257601f60209101040190614992565b8661369e565b90601f198316918460005260206000209260005b81811061399f57509160029391856001969410613984575b50505002019055613675565b01516008601f841602840a6000190419169055888080613978565b92936020600181928786015181550195019301613960565b6139e4908460005260206000206020601f8601048101916020861061089257601f60209101040190614992565b8761363f565b90601f198316918460005260206000209260005b818110613a3d57509160029391856001969410613a22575b50505002019055613616565b01516008601f841602840a6000190419169055898080613a16565b929360206001819287860151815501950193016139fe565b613a82908460005260206000206020601f8601048101916020861061089257601f60209101040190614992565b886135e0565b906003840160005260206000209160005b601f1985168110613aed575083600393600193600293600160a060020a03999897601f19811610613ad2575b50505002019101556135a7565b01516008601f841602840a60001904191690558c8080613ac5565b91926020600181928685015181550194019201613a99565b613b35906003850160005260206000206020601f8601048101916020861061089257601f60209101040190614992565b89613563565b906002850160005260206000209160005b601f1985168110613b965750918391600293600195601f19811610613b7b575b5050500201600283015561353b565b01516008601f841602840a60001904191690558b8080613b6c565b91926020600181928685015181550194019201613b4c565b613bde906002860160005260206000206020601f8601048101916020861061089257601f60209101040190614992565b8a613502565b906001860160005260206000209160005b601f1985168110613c3f5750918391600293600195601f19811610613c24575b505050020160018401556134da565b01516008601f841602840a60001904191690558c8080613c15565b91926020600181928685015181550194019201613bf5565b613c87906001870160005260206000206020601f8601048101916020861061089257601f60209101040190614992565b8b6134a1565b3461027a5760208060031936011261027a576004353360005260088252604060002081600052825261027660406000205433600052600884526040600020836000528452613ce16001604060002001614741565b9233600052600885526040600020816000528552613d056002604060002001614741565b9433600052600881526040600020916000525261026a6003604060002001614741565b3461027a57600036600319011261027a5733600052613dda6020600a8152610276613d596001604060002001614741565b9133600052600a8152613e03613d756002604060002001614741565b9133600052600a8152613df5613d916003604060002001614741565b33600052600a8352613de7613dac6004604060002001614741565b9333600052600a8152613dc56005604060002001614741565b966040519a8b9a60a08c5260a08c01906146c8565b918a8303908b01526146c8565b9087820360408901526146c8565b9085820360608701526146c8565b9083820360808501526146c8565b3461027a5760208060031936011261027a576004353360005260068252604060002081600052825261027660406000205433600052600684526040600020836000528452613e656001604060002001614741565b9233600052600685526040600020816000528552613e896002604060002001614741565b9433600052600681526040600020916000525261026a6003604060002001614741565b3461027a57611a01613ede60206102a2613ec536614642565b96919285604096929651938285809451938492016146a5565b906000526020526040600020600160a060020a03908181541690613f0460018201614741565b92613f1160028301614741565b9060038301541691613f2560048201614741565b6005820154936006830154600784015490613f9760ff60088701541693600987015495613f84600c60ff600a8b01541699015499613f766040519e8f9e8f61018091815281602082015201906146c8565b8d810360408f0152906146c8565b9160608c01528a820360808c01526146c8565b9660a089015260c088015260e0870152151561010086015261012085015215156101408401526101608301520390f35b3461027a57600036600319011261027a5733600052600a6020526040806000206007600682015491015482519182526020820152f35b3461027a5760208060031936011261027a5760043590336000526006815260406000208260005281526140366001604060002001614741565b913360005260068252604060002081600052825261405a6002604060002001614741565b3360005260068352604060002082600052835261407d6003604060002001614741565b913360005260068452604060002090600052835260406000205493604051906140bc6140b682519387818186019661165281838a6146a5565b856148ed565b86600052855260ff600a604060002001541661410c5791611a01856102a2936140f196956040519384928392519283916146a5565b6000928352905260409020600a01805460ff19166001179055005b6084856040519060e560020a62461bcd0282526004820152602160248201527f50726f706572747920616c7265616479206d61726b656420617661696c61626c60448201527f65000000000000000000000000000000000000000000000000000000000000006064820152fd5b3461027a57602036600319011261027a57600160a060020a038061419b6146ed565b1660005260046020526040600020908154166102766141bc60018401614741565b926142036141d860036141d160028501614741565b9301614741565b916141f560405196879687526080602088015260808701906146c8565b9085820360408701526146c8565b9083820360608501526146c8565b3461027a576102a26102a261422861029636614860565b90600052602052600b604060002001906000526020526020600160a060020a0360406000205416604051908152f35b3461027a57600036600319011261027a576020600160a060020a0360005416604051908152f35b3461027a57602036600319011261027a57600160a060020a03806142a06146ed565b1660005260056020526040600020908154166102766142c160018401614741565b926142ce60028201614741565b906142db60038201614741565b6142e760048301614741565b6142f360058401614741565b916007600685015494015494604051988998896147e5565b3461027a57602036600319011261027a57600160a060020a0361432c6146ed565b1660005260056020526102766114aa6004604060002001614741565b3461027a57602036600319011261027a57600160a060020a038061436a6146ed565b16600052600a6020526040600020908154166102766142c160018401614741565b3461027a5761439936614642565b9192604051908051602095868301916143b38186856146a5565b8401938781600996878152030190206143cc90826148ed565b6143d690866148ed565b866000528752604060002054600160a060020a031695604051888186516143fe8183896146a5565b81018881520301902061441190836148ed565b61441b90876148ed565b816000528852604060002060050154956040518981875161443d81838a6146a5565b81018981520301902061445090846148ed565b61445a90826148ed565b826000528952604060002060070154926040518a81885161447c81838b6146a5565b81018a81520301902061448f90826148ed565b61449990836148ed565b836000528a528660406000200154946040518b8189516144ba8183876146a5565b81018b8152030190206144cd90836148ed565b6144d790846148ed565b846000528b528a60406000206002016144ef90614741565b97604051828183516145028183896146a5565b81018d81520301902061451590856148ed565b61451f90866148ed565b866000528252604060002060010161453690614741565b996040518094819351809261454a926146a5565b82019081520301902061455c916148ed565b614565916148ed565b906000528752604060002060040161457c90614741565b946040519788978852870152604086015260608501526080840160e0905260e084016145a7916146c8565b83810360a08501526145b8916146c8565b82810360c0840152610276916146c8565b90601f8019910116810190811067ffffffffffffffff82111761089c57604052565b81601f8201121561027a5780359067ffffffffffffffff821161089c5760405192614620601f8401601f1916602001856145c9565b8284526020838301011161027a57816000926020809301838601378301015290565b608060031982011261027a5767ffffffffffffffff9160043583811161027a578261466f916004016145eb565b9260243581811161027a5783614687916004016145eb565b9260443591821161027a5761469e916004016145eb565b9060643590565b60005b8381106146b85750506000910152565b81810151838201526020016146a8565b906020916146e1815180928185528580860191016146a5565b601f01601f1916010190565b60043590600160a060020a038216820361027a57565b9060016002830492168015614737575b602083101461471e57565b60e060020a634e487b7102600052602260045260246000fd5b91607f1691614713565b9060405191826000825461475481614703565b908184526020946001916001811690816000146147c45750600114614785575b505050614783925003836145c9565b565b600090815285812095935091905b8183106147ac5750506147839350820101388080614774565b85548884018501529485019487945091830191614793565b9250505061478394925060ff19168284015215158102820101388080614774565b94906148569461482c60e0989561481e6148489661483a959e9d9c9e600160a060020a0361010091168c528060208d01528b01906146c8565b9089820360408b01526146c8565b9087820360608901526146c8565b9085820360808701526146c8565b9083820360a08501526146c8565b9460c08201520152565b60a060031982011261027a5767ffffffffffffffff9160043583811161027a578261488d916004016145eb565b9260243581811161027a57836148a5916004016145eb565b9260443591821161027a576148bc916004016145eb565b906064359060843590565b60206148e09181604051938285809451938492016146a5565b8101600981520301902090565b6020906149079282604051948386809551938492016146a5565b82019081520301902090565b94939261329760609361493161493f9460808a5260808a01906146c8565b9088820360208a01526146c8565b930152565b9261496461498095936149729386526080602087015260808601906146c8565b9084820360408601526146c8565b9160608184039101526146c8565b90565b600019811461153d5760010190565b81811061499d575050565b60008155600101614992565b33600052600460205233600160a060020a0360406000205416146000146149cf57600190565b600090565b6149de8154614703565b90816149e8575050565b81601f600093116001146149fa575055565b908083918252614a186020601f818520950104840160018501614992565b5555565b33600052600560205233600160a060020a0360406000205416146000146149cf57600190565b9291614a64906102a26040936040516020818951611a01818385809e016146a5565b60009283526020526040822090600c8201548015614abe5791600b01835b838110614a925750505050905090565b80855281865233600160a060020a03848720541614614ab357600101614a82565b505050505050600190565b505050905090565b600092918154614ad581614703565b92600191808316908115614b2f5750600114614af2575b50505050565b9091929394506000526020906020600020906000915b858310614b1e5750505050019038808080614aec565b805485840152918301918101614b08565b60ff1916845250505081151590910201915038808080614aec56fea26469706673582212209c1d28ea5b81c110a3646dc6ffba3f5704916e70b31b30339e66b5ffca38a41164736f6c63430008170033",
  "immutableReferences": {},
  "source": "// SPDX-License-Identifier: MIT\n\npragma solidity >=0.5.0 <0.9.0;\n\ncontract Registry {\n    address public superAdmin;\n    uint256 public totalAdmins;\n    uint256 public totalVendors;\n    uint256 public totalTendors = 1000;\n\n    struct Admin {\n        address adminAddress;\n        string city;\n        string district;\n        string state;\n    }\n\n    struct Vendor {\n        address vendorAddress;\n        string city;\n        string district;\n        string state;\n        string year;\n        string vendortype;\n        uint256 rating;\n        uint256 noofRaters;\n    }\n\n    struct TenderDetails {\n        address owner;\n        string tendertype;\n        string tenderName;\n        address admin;\n        string ipfsuri;\n        uint256 tenderId;\n        uint256 tenderid1;\n        uint256 index;\n        bool registered;\n        uint256 marketValue;\n        bool markAvailable;\n        mapping(uint256 => RequestDetails) requests; // reqNo => RequestDetails\n        uint256 noOfRequests; \n    }\n\n    struct UserProfile {\n        address userAddr;\n        string fullName;\n        string gender;\n        string email;\n        string contact;\n        string residentialAddr;\n        uint256 totalIndices;\n        uint256 requestIndices;\n    }\n\n    struct OwnerOwns {\n        uint256 tenderid1;\n        string state;\n        string district;\n        string city;\n    }\n\n    struct AdminOwns {\n        uint256 surveyNo;\n        string state;\n        string district;\n        string city;\n        address AllocatedTo;\n    }\n\n    struct RequestedTenders {\n        uint256 tenderid1;\n        string state;\n        string district;\n        string city;\n    }\n\n    struct RequestDetails {\n        address whoRequested;\n        uint256 reqIndex;\n        uint256 BidAmount;\n        string FileURI;\n    }\n\n    mapping(address => Admin) public admins;\n    mapping(address => Vendor) public vendors;\n    mapping(address => mapping(uint256 => OwnerOwns)) public ownerMapsProperty;\n    mapping(address => mapping(uint256 => AdminOwns)) public adminMapsProperty; // ownerAddr => index no. => OwnerOwns\n    mapping(address => mapping(uint256 => RequestedTenders))\n        public requestedTenders; // ownerAddr => reqIndex => RequestedTenders\n    mapping(string => mapping(string => mapping(string => mapping(uint256 => TenderDetails))))\n        public tenderDetailsMap; // state => district => city => surveyNo => TenderDetails\n    mapping(address => UserProfile) public userProfile;\n\n    constructor() {\n        superAdmin = msg.sender;\n    }\n\n    modifier onlyAdmin() {\n        require(\n            admins[msg.sender].adminAddress == msg.sender,\n            \"Only admin can Register land\"\n        );\n        _;\n    }\n\n    // SuperAdmin: Registers new admin\n    function addAdmin(\n        address _adminAddr,\n        string memory _state,\n        string memory _district,\n        string memory _city,\n        string memory _fullName,\n        string memory _gender,\n        string memory _email,\n        string memory _contact,\n        string memory _residentialAddr\n    ) external {\n        Admin storage newAdmin = admins[_adminAddr];\n        totalAdmins++;\n\n        newAdmin.adminAddress = _adminAddr;\n        newAdmin.city = _city;\n        newAdmin.district = _district;\n        newAdmin.state = _state;\n\n        UserProfile storage newUserProfile = userProfile[_adminAddr];\n\n        newUserProfile.fullName = _fullName;\n        newUserProfile.gender = _gender;\n        newUserProfile.email = _email;\n        newUserProfile.contact = _contact;\n        newUserProfile.residentialAddr = _residentialAddr;\n    }\n\n    function addVendor(\n        address _vendorAddr,\n        string memory _state,\n        string memory _district,\n        string memory _city,\n        string memory _fullName,\n        string memory _gender,\n        string memory _email,\n        string memory _contact,\n        string memory _residentialAddr,\n        string memory _year,\n        string memory _vendortype\n    ) external {\n        Vendor storage newVendor = vendors[_vendorAddr];\n        totalVendors++;\n\n        newVendor.vendorAddress = _vendorAddr;\n        newVendor.city = _city;\n        newVendor.district = _district;\n        newVendor.state = _state;\n        newVendor.rating = 5;\n        newVendor.noofRaters = 1;\n        newVendor.vendortype = _vendortype;\n        newVendor.year = _year;\n\n        UserProfile storage newUserProfile = userProfile[_vendorAddr];\n\n        newUserProfile.fullName = _fullName;\n        newUserProfile.gender = _gender;\n        newUserProfile.email = _email;\n        newUserProfile.contact = _contact;\n        newUserProfile.residentialAddr = _residentialAddr;\n    }\n\n    //function Give Rating\n    function GiveRating(address _vendortorating, uint256 _ratenumber) public {\n        vendors[_vendortorating].rating =\n            vendors[_vendortorating].rating +\n            _ratenumber;\n        vendors[_vendortorating].noofRaters++;\n    }\n\n    // check if it is admin\n    function isAdmin() external view returns (bool) {\n        if (admins[msg.sender].adminAddress == msg.sender) {\n            return true;\n        } else return false;\n    }\n\n    //Chekc if it is Vendor\n    function isVendor() external view returns (bool) {\n        if (vendors[msg.sender].vendorAddress == msg.sender) {\n            return true;\n        } else return false;\n    }\n\n     function registerTender(\n        string memory _state,\n        string memory _district,\n        string memory _city,\n        uint256 _tenderId,\n        uint256 _surveyNo,\n        address _owner,\n        uint256 _marketValue,\n        string memory _tenderName,\n        string memory _tendertype,\n        string memory _ipfsuri\n    ) external onlyAdmin {\n        require(\n            keccak256(abi.encodePacked(admins[msg.sender].state)) ==\n                keccak256(abi.encodePacked(_state)) &&\n                keccak256(abi.encodePacked(admins[msg.sender].district)) ==\n                keccak256(abi.encodePacked(_district)) &&\n                keccak256(abi.encodePacked(admins[msg.sender].city)) ==\n                keccak256(abi.encodePacked(_city)),\n            \"Admin can only register land of same city.\"\n        );\n\n        require(\n            tenderDetailsMap[_state][_district][_city][totalTendors].registered ==\n                false,\n            \"Survey Number already registered!\"\n        );\n\n        TenderDetails storage newTenderRegistry = tenderDetailsMap[_state][_district][\n            _city\n        ][totalTendors];\n\n        OwnerOwns storage newOwnerOwns = ownerMapsProperty[msg.sender][\n            userProfile[msg.sender].totalIndices\n        ];\n\n        AdminOwns storage newAdminOwns = adminMapsProperty[msg.sender][\n            userProfile[msg.sender].totalIndices\n        ];\n\n        newTenderRegistry.owner = _owner;\n        newTenderRegistry.admin = msg.sender;\n        newTenderRegistry.tenderId = totalTendors;\n        newTenderRegistry.tenderid1 = totalTendors;\n        newTenderRegistry.index = userProfile[_owner].totalIndices;\n        newTenderRegistry.registered = true;\n        newTenderRegistry.marketValue = _marketValue;\n        newTenderRegistry.markAvailable = true;\n        newTenderRegistry.tenderName = _tenderName;\n        newTenderRegistry.tendertype = _tendertype;\n        newTenderRegistry.ipfsuri = _ipfsuri;\n\n        newOwnerOwns.tenderid1 = totalTendors;\n        newOwnerOwns.state = _state;\n        newOwnerOwns.district = _district;\n        newOwnerOwns.city = _city;\n\n        userProfile[_owner].totalIndices++;\n\n        totalTendors++;\n    }\n\n    // User_1: set user profile\n    function setUserProfile(\n        string memory _fullName,\n        string memory _gender,\n        string memory _email,\n        string memory _contact,\n        string memory _residentialAddr\n    ) public {\n        UserProfile storage newUserProfile = userProfile[msg.sender];\n\n        newUserProfile.fullName = _fullName;\n        newUserProfile.gender = _gender;\n        newUserProfile.email = _email;\n        newUserProfile.contact = _contact;\n        newUserProfile.residentialAddr = _residentialAddr;\n    }\n\n    // User_1: mark property available\n    function markMyPropertyAvailable(uint256 indexNo) external {\n        string memory state = ownerMapsProperty[msg.sender][indexNo].state;\n        string memory district = ownerMapsProperty[msg.sender][indexNo]\n            .district;\n        string memory city = ownerMapsProperty[msg.sender][indexNo].city;\n        uint256 tenderid1 = ownerMapsProperty[msg.sender][indexNo]\n            .tenderid1;\n\n        require(\n            tenderDetailsMap[state][district][city][tenderid1].markAvailable ==\n                false,\n            \"Property already marked available\"\n        );\n\n        tenderDetailsMap[state][district][city][tenderid1].markAvailable = true;\n    }\n\n    // User_2: Request for buy  ownerAddress & index = arguements\n    function RequestForBuy(\n        string memory _state,\n        string memory _district,\n        string memory _city,\n        uint256 _surveyNo,\n        uint256 _BidAmount,\n        string memory _FileURI\n    ) external {\n        TenderDetails storage thisTenderDetail = tenderDetailsMap[_state][_district][\n            _city\n        ][_surveyNo];\n        require(\n            thisTenderDetail.markAvailable == true,\n            \"This property is NOT marked for sale!\"\n        );\n\n        uint256 req_serialNum = thisTenderDetail.noOfRequests;\n        thisTenderDetail.requests[req_serialNum].whoRequested = msg.sender;\n        thisTenderDetail.requests[req_serialNum].reqIndex = userProfile[\n            msg.sender\n        ].requestIndices;\n        thisTenderDetail.requests[req_serialNum].BidAmount = _BidAmount;\n        thisTenderDetail.requests[req_serialNum].FileURI = _FileURI;\n        thisTenderDetail.noOfRequests++;\n\n        \n        RequestedTenders storage newReqestedTenders = requestedTenders[msg.sender][\n            userProfile[msg.sender].requestIndices\n        ];\n        newReqestedTenders.tenderid1 = _surveyNo;\n        newReqestedTenders.state = _state;\n        newReqestedTenders.district = _district;\n        newReqestedTenders.city = _city;\n\n        userProfile[msg.sender].requestIndices++;\n    }\n\n    // User_1: Accept the buy request; sell.\n    function AcceptRequest(uint256 _index, uint256 _reqNo) public {\n        uint256 _surveyNo = ownerMapsProperty[msg.sender][_index].tenderid1;\n        string memory _state = ownerMapsProperty[msg.sender][_index].state;\n        string memory _district = ownerMapsProperty[msg.sender][_index]\n            .district;\n        string memory _city = ownerMapsProperty[msg.sender][_index].city;\n\n        // updating TenderDetails\n        address newOwner = tenderDetailsMap[_state][_district][_city][_surveyNo]\n            .requests[_reqNo]\n            .whoRequested;\n\n        uint256 newOwner_reqIndex = tenderDetailsMap[_state][_district][_city][\n            _surveyNo\n        ].requests[_reqNo].reqIndex;\n\n        uint256 noOfReq = tenderDetailsMap[_state][_district][_city][_surveyNo]\n            .noOfRequests;\n\n        string memory _FileURI = tenderDetailsMap[_state][_district][_city][\n                _surveyNo\n            ].requests[_reqNo].FileURI;\n\n        uint256 _BidAmount = tenderDetailsMap[_state][_district][_city][\n                _surveyNo\n            ].requests[_reqNo].BidAmount;\n\n        \n        for (uint256 i = 0; i < noOfReq; i++) {\n            address requesterAddr = tenderDetailsMap[_state][_district][_city][\n                _surveyNo\n            ].requests[i].whoRequested;\n            uint256 requester_reqIndx = tenderDetailsMap[_state][_district][_city][\n                _surveyNo\n            ].requests[i].reqIndex;\n\n            delete requestedTenders[requesterAddr][requester_reqIndx];\n            delete tenderDetailsMap[_state][_district][_city][_surveyNo].requests[\n                i\n            ];\n        }\n        \n        \n\n        tenderDetailsMap[_state][_district][_city][_surveyNo].owner = newOwner;\n        tenderDetailsMap[_state][_district][_city][_surveyNo].ipfsuri = _FileURI;\n        tenderDetailsMap[_state][_district][_city][_surveyNo].marketValue = _BidAmount;\n        tenderDetailsMap[_state][_district][_city][_surveyNo].markAvailable = false;\n        tenderDetailsMap[_state][_district][_city][_surveyNo].noOfRequests = 0;\n\n        // deleting property from user_1's ownerMapsProperty\n        // delete ownerMapsProperty[msg.sender][_index];\n\n        // adding ownerMapsProperty for newOwner\n        uint256 newOwnerTotProp = userProfile[newOwner].totalIndices;\n        OwnerOwns storage newOwnerOwns = ownerMapsProperty[newOwner][\n            newOwnerTotProp\n        ];\n\n        newOwnerOwns.tenderid1 = _surveyNo;\n        newOwnerOwns.state = _state;\n        newOwnerOwns.district = _district;\n        newOwnerOwns.city = _city;\n\n        tenderDetailsMap[_state][_district][_city][_surveyNo]\n            .index = newOwnerTotProp;\n\n        userProfile[newOwner].totalIndices++;\n    }\n\n    //******* GETTERS **********\n\n    function getTenderDetails(\n        string memory _state,\n        string memory _district,\n        string memory _city,\n        uint256 _surveyNo\n    )\n        external\n        view\n        returns (\n            address,\n            uint256,\n            uint256,\n            uint256,\n            string memory,\n            string memory,\n            string memory\n        )\n    {\n        address owner = tenderDetailsMap[_state][_district][_city][_surveyNo]\n            .owner;\n        uint256 propertyid = tenderDetailsMap[_state][_district][_city][_surveyNo]\n            .tenderId;\n        uint256 indx = tenderDetailsMap[_state][_district][_city][_surveyNo].index;\n\n        uint256 mv = tenderDetailsMap[_state][_district][_city][_surveyNo]\n            .marketValue;\n\n        string memory tendorName = tenderDetailsMap[_state][_district][_city][\n            _surveyNo\n        ].tenderName;\n\n        string memory tendortype = tenderDetailsMap[_state][_district][_city][\n            _surveyNo\n        ].tendertype;\n\n        string memory ipfsuri = tenderDetailsMap[_state][_district][_city][\n            _surveyNo\n        ].ipfsuri;\n\n        return (owner, propertyid, indx, mv, tendorName, tendortype, ipfsuri);\n    }\n\n    function getRequestCnt_propId(\n        string memory _state,\n        string memory _district,\n        string memory _city,\n        uint256 _surveyNo\n    ) external view returns (uint256, uint256) {\n        uint256 _noOfRequests = tenderDetailsMap[_state][_district][_city][\n            _surveyNo\n        ].noOfRequests;\n        uint256 _tenderId = tenderDetailsMap[_state][_district][_city][_surveyNo]\n            .tenderId;\n        return (_noOfRequests, _tenderId);\n    }\n\n    function getRequesterDetail(\n        string memory _state,\n        string memory _district,\n        string memory _city,\n        uint256 _surveyNo,\n        uint256 _reqIndex\n    ) external view returns (address) {\n        address requester = tenderDetailsMap[_state][_district][_city][_surveyNo]\n            .requests[_reqIndex]\n            .whoRequested;\n\n        return (requester);\n    }\n\n    function getRequesterBidAmount(\n        string memory _state,\n        string memory _district,\n        string memory _city,\n        uint256 _surveyNo,\n        uint256 _reqIndex\n    ) external view returns (uint256) {\n        uint256 BidAmount = tenderDetailsMap[_state][_district][_city][_surveyNo]\n            .requests[_reqIndex]\n            .BidAmount;\n\n        return (BidAmount);\n    }\n\n    function getRequesterFileURI(\n        string memory _state,\n        string memory _district,\n        string memory _city,\n        uint256 _surveyNo,\n        uint256 _reqIndex\n    ) external view returns (string memory) {\n        string memory RequesterFileURI = tenderDetailsMap[_state][_district][\n            _city\n        ][_surveyNo].requests[_reqIndex].FileURI;\n\n        return (RequesterFileURI);\n    }\n\n    function getRequesterName(\n        string memory _state,\n        string memory _district,\n        string memory _city,\n        uint256 _surveyNo,\n        uint256 _reqIndex\n    ) external view returns (string memory) {\n        address requester = tenderDetailsMap[_state][_district][_city][_surveyNo]\n            .requests[_reqIndex]\n            .whoRequested;\n\n        string memory NameofRequester = userProfile[requester].fullName;\n        return (NameofRequester);\n    }\n\n    function isAvailable(\n        string memory _state,\n        string memory _district,\n        string memory _city,\n        uint256 _surveyNo\n    ) external view returns (bool) {\n        bool available = tenderDetailsMap[_state][_district][_city][_surveyNo]\n            .markAvailable;\n        return (available);\n    }\n\n    function getOwnerOwns(\n        uint256 indx\n    )\n        external\n        view\n        returns (string memory, string memory, string memory, uint256)\n    {\n        uint256 surveyNo = ownerMapsProperty[msg.sender][indx].tenderid1;\n        string memory state = ownerMapsProperty[msg.sender][indx].state;\n        string memory district = ownerMapsProperty[msg.sender][indx].district;\n        string memory city = ownerMapsProperty[msg.sender][indx].city;\n\n        return (state, district, city, surveyNo);\n    }\n\n    function getAdminOwns(\n        uint256 indx\n    )\n        external\n        view\n        returns (string memory, string memory, string memory, uint256)\n    {\n        uint256 surveyNo = adminMapsProperty[msg.sender][indx].surveyNo;\n        string memory state = adminMapsProperty[msg.sender][indx].state;\n        string memory district = adminMapsProperty[msg.sender][indx].district;\n        string memory city = adminMapsProperty[msg.sender][indx].city;\n\n        return (state, district, city, surveyNo);\n    }\n\n    function getRequestedTenders(\n        uint256 indx\n    )\n        external\n        view\n        returns (string memory, string memory, string memory, uint256)\n    {\n        uint256 surveyNo = requestedTenders[msg.sender][indx].tenderid1;\n        string memory state = requestedTenders[msg.sender][indx].state;\n        string memory district = requestedTenders[msg.sender][indx].district;\n        string memory city = requestedTenders[msg.sender][indx].city;\n\n        return (state, district, city, surveyNo);\n    }\n\n    function getUserProfile()\n        external\n        view\n        returns (\n            string memory,\n            string memory,\n            string memory,\n            string memory,\n            string memory\n        )\n    {\n        string memory fullName = userProfile[msg.sender].fullName;\n        string memory gender = userProfile[msg.sender].gender;\n        string memory email = userProfile[msg.sender].email;\n        string memory contact = userProfile[msg.sender].contact;\n        string memory residentialAddr = userProfile[msg.sender].residentialAddr;\n\n        return (fullName, gender, email, contact, residentialAddr);\n    }\n\n    function getUserName(address _addr) external view returns (string memory) {\n        string memory fullName = userProfile[_addr].fullName;\n\n        return (fullName);\n    }\n\n\n\n    function getestablishYear(\n        address _addr\n    ) external view returns (string memory) {\n        string memory year = vendors[_addr].year;\n\n        return (year);\n    }\n\n    function getIndices() external view returns (uint256, uint256) {\n        uint256 _totalIndices = userProfile[msg.sender].totalIndices;\n        uint256 _reqIndices = userProfile[msg.sender].requestIndices;\n\n        return (_totalIndices, _reqIndices);\n    }\n\n    function didIRequested(\n        string memory _state,\n        string memory _district,\n        string memory _city,\n        uint256 _surveyNo\n    ) external view returns (bool) {\n        TenderDetails storage thisTenderDetail = tenderDetailsMap[_state][_district][\n            _city\n        ][_surveyNo];\n        uint256 _noOfRequests = thisTenderDetail.noOfRequests;\n\n        if (_noOfRequests == 0) return (false);\n\n        for (uint256 i = 0; i < _noOfRequests; i++) {\n            if (thisTenderDetail.requests[i].whoRequested == msg.sender) {\n                return (true);\n            }\n        }\n\n        return (false);\n    }\n\n    function getTotalTendors() external view returns (uint256) {\n        return (totalTendors);\n    }\n}\n",
  "sourcePath": "C:\\Users\\hp\\Downloads\\Final_EDI_Without_UI-master\\Final_EDI_Without_UI-master\\contracts\\Registry.sol",
  "compiler": {
    "name": "solc",
    "version": "0.8.23+commit.f704f362.Emscripten.clang"
  },
  "schemaVersion": "3.4.15",
  "updatedAt": "2023-11-24T18:47:14.405Z",
  "networkType": "ethereum",
  "devdoc": {
    "kind": "dev",
    "methods": {},
    "version": 1
  },
  "userdoc": {
    "kind": "user",
    "methods": {},
    "version": 1
  }
}